{
  "_format": "hh-sol-artifact-1",
  "contractName": "FeesOracle",
  "sourceName": "contracts/extensions/helpers/FeesOracle.sol",
  "abi": [
    {
      "inputs": [
        {
          "internalType": "address",
          "name": "_weth9",
          "type": "address"
        },
        {
          "internalType": "address",
          "name": "_uniswapV3Factory",
          "type": "address"
        },
        {
          "internalType": "address",
          "name": "_erc20hx",
          "type": "address"
        },
        {
          "internalType": "uint32",
          "name": "_twapPeriod",
          "type": "uint32"
        },
        {
          "internalType": "uint24",
          "name": "_uniswapV3PoolFeeTier",
          "type": "uint24"
        },
        {
          "internalType": "uint16",
          "name": "_feeBPS",
          "type": "uint16"
        }
      ],
      "stateMutability": "nonpayable",
      "type": "constructor"
    },
    {
      "inputs": [],
      "name": "T",
      "type": "error"
    },
    {
      "anonymous": false,
      "inputs": [
        {
          "indexed": true,
          "internalType": "address",
          "name": "previousOwner",
          "type": "address"
        },
        {
          "indexed": true,
          "internalType": "address",
          "name": "newOwner",
          "type": "address"
        }
      ],
      "name": "OwnershipTransferred",
      "type": "event"
    },
    {
      "inputs": [
        {
          "internalType": "uint256",
          "name": "tokenAmount",
          "type": "uint256"
        }
      ],
      "name": "fee",
      "outputs": [
        {
          "internalType": "uint256",
          "name": "value",
          "type": "uint256"
        }
      ],
      "stateMutability": "view",
      "type": "function"
    },
    {
      "inputs": [],
      "name": "getDefaultPool",
      "outputs": [
        {
          "internalType": "address",
          "name": "",
          "type": "address"
        }
      ],
      "stateMutability": "view",
      "type": "function"
    },
    {
      "inputs": [],
      "name": "getFeeOracle1BPS",
      "outputs": [
        {
          "internalType": "uint256",
          "name": "feeAmount",
          "type": "uint256"
        }
      ],
      "stateMutability": "view",
      "type": "function"
    },
    {
      "inputs": [],
      "name": "getOracleTWAPPrice",
      "outputs": [
        {
          "internalType": "uint256",
          "name": "oraclePrice",
          "type": "uint256"
        }
      ],
      "stateMutability": "view",
      "type": "function"
    },
    {
      "inputs": [
        {
          "internalType": "address",
          "name": "pool",
          "type": "address"
        }
      ],
      "name": "oldestObservationSecondsAgo",
      "outputs": [
        {
          "internalType": "uint32",
          "name": "",
          "type": "uint32"
        }
      ],
      "stateMutability": "view",
      "type": "function"
    },
    {
      "inputs": [],
      "name": "owner",
      "outputs": [
        {
          "internalType": "address",
          "name": "",
          "type": "address"
        }
      ],
      "stateMutability": "view",
      "type": "function"
    },
    {
      "inputs": [],
      "name": "renounceOwnership",
      "outputs": [],
      "stateMutability": "nonpayable",
      "type": "function"
    },
    {
      "inputs": [
        {
          "internalType": "address",
          "name": "_ERC20HX",
          "type": "address"
        }
      ],
      "name": "setERC20HX",
      "outputs": [],
      "stateMutability": "nonpayable",
      "type": "function"
    },
    {
      "inputs": [
        {
          "internalType": "bool",
          "name": "value",
          "type": "bool"
        }
      ],
      "name": "setEnableOracle",
      "outputs": [],
      "stateMutability": "nonpayable",
      "type": "function"
    },
    {
      "inputs": [
        {
          "internalType": "uint16",
          "name": "_feeBPS",
          "type": "uint16"
        }
      ],
      "name": "setFeeBPS",
      "outputs": [],
      "stateMutability": "nonpayable",
      "type": "function"
    },
    {
      "inputs": [
        {
          "internalType": "uint256",
          "name": "weiFormatAmount",
          "type": "uint256"
        }
      ],
      "name": "setFixedFee",
      "outputs": [],
      "stateMutability": "nonpayable",
      "type": "function"
    },
    {
      "inputs": [
        {
          "internalType": "uint32",
          "name": "_period",
          "type": "uint32"
        }
      ],
      "name": "setTWAPPeriod",
      "outputs": [],
      "stateMutability": "nonpayable",
      "type": "function"
    },
    {
      "inputs": [
        {
          "internalType": "address",
          "name": "_UNISWAP_V3_FACTORY",
          "type": "address"
        }
      ],
      "name": "setUniV3Factory",
      "outputs": [],
      "stateMutability": "nonpayable",
      "type": "function"
    },
    {
      "inputs": [
        {
          "internalType": "uint24",
          "name": "_uniswapV3PoolFeeTier",
          "type": "uint24"
        }
      ],
      "name": "setUniV3PoolFeeTier",
      "outputs": [],
      "stateMutability": "nonpayable",
      "type": "function"
    },
    {
      "inputs": [
        {
          "internalType": "address",
          "name": "_WETH9",
          "type": "address"
        }
      ],
      "name": "setWETH9",
      "outputs": [],
      "stateMutability": "nonpayable",
      "type": "function"
    },
    {
      "inputs": [
        {
          "internalType": "address",
          "name": "newOwner",
          "type": "address"
        }
      ],
      "name": "transferOwnership",
      "outputs": [],
      "stateMutability": "nonpayable",
      "type": "function"
    }
  ],
  "bytecode": "0x608060405234801561001057600080fd5b50604051612a16380380612a1683398181016040528101906100329190610360565b61004e61004361018060201b60201c565b61018860201b60201c565b6001808190555085600260006101000a81548173ffffffffffffffffffffffffffffffffffffffff021916908373ffffffffffffffffffffffffffffffffffffffff16021790555084600360006101000a81548173ffffffffffffffffffffffffffffffffffffffff021916908373ffffffffffffffffffffffffffffffffffffffff16021790555083600460006101000a81548173ffffffffffffffffffffffffffffffffffffffff021916908373ffffffffffffffffffffffffffffffffffffffff16021790555082600660006101000a81548163ffffffff021916908363ffffffff16021790555081600660046101000a81548162ffffff021916908362ffffff16021790555080600660076101000a81548161ffff021916908361ffff1602179055505050505050506103ed565b600033905090565b60008060009054906101000a900473ffffffffffffffffffffffffffffffffffffffff169050816000806101000a81548173ffffffffffffffffffffffffffffffffffffffff021916908373ffffffffffffffffffffffffffffffffffffffff1602179055508173ffffffffffffffffffffffffffffffffffffffff168173ffffffffffffffffffffffffffffffffffffffff167f8be0079c531659141344cd1fd0a4f28419497f9722a3daafe3b4186f6b6457e060405160405180910390a35050565b600080fd5b600073ffffffffffffffffffffffffffffffffffffffff82169050919050565b600061027c82610251565b9050919050565b61028c81610271565b811461029757600080fd5b50565b6000815190506102a981610283565b92915050565b600063ffffffff82169050919050565b6102c8816102af565b81146102d357600080fd5b50565b6000815190506102e5816102bf565b92915050565b600062ffffff82169050919050565b610303816102eb565b811461030e57600080fd5b50565b600081519050610320816102fa565b92915050565b600061ffff82169050919050565b61033d81610326565b811461034857600080fd5b50565b60008151905061035a81610334565b92915050565b60008060008060008060c0878903121561037d5761037c61024c565b5b600061038b89828a0161029a565b965050602061039c89828a0161029a565b95505060406103ad89828a0161029a565b94505060606103be89828a016102d6565b93505060806103cf89828a01610311565b92505060a06103e089828a0161034b565b9150509295509295509295565b61261a806103fc6000396000f3fe608060405234801561001057600080fd5b50600436106101005760003560e01c806396a4415011610097578063f2fde38b11610066578063f2fde38b14610273578063fcb57c951461028f578063fcf2280c146102ab578063ff581324146102c757610100565b806396a4415014610203578063ca91e18c1461021f578063cfcca40e1461023b578063d129c1771461025757610100565b806363d1c444116100d357806363d1c4441461019f5780636a33d83f146101bd578063715018a6146101db5780638da5cb5b146101e557610100565b806337de81061461010557806339b37ab01461012157806353406366146101515780635456f01b14610181575b600080fd5b61011f600480360381019061011a91906115dd565b6102e3565b005b61013b600480360381019061013691906115dd565b6102f5565b6040516101489190611619565b60405180910390f35b61016b60048036038101906101669190611692565b610360565b60405161017891906116de565b60405180910390f35b610189610372565b6040516101969190611708565b60405180910390f35b6101a761044c565b6040516101b49190611619565b60405180910390f35b6101c561045b565b6040516101d29190611619565b60405180910390f35b6101e361046a565b005b6101ed61047e565b6040516101fa9190611708565b60405180910390f35b61021d6004803603810190610218919061175d565b6104a7565b005b61023960048036038101906102349190611692565b6104cf565b005b610255600480360381019061025091906117c5565b6104e3565b005b610271600480360381019061026c919061182a565b6104f7565b005b61028d60048036038101906102889190611692565b61050b565b005b6102a960048036038101906102a49190611692565b61058e565b005b6102c560048036038101906102c09190611883565b6105a2565b005b6102e160048036038101906102dc9190611692565b6105b6565b005b6102eb6105ca565b8060058190555050565b6000600660099054906101000a900460ff16610320576005548261031991906118df565b905061035b565b6000600660079054906101000a900461ffff1661ffff1661033f610648565b61034991906118df565b9050808361035791906118df565b9150505b919050565b600061036b82610664565b9050919050565b6000600360009054906101000a900473ffffffffffffffffffffffffffffffffffffffff1673ffffffffffffffffffffffffffffffffffffffff16631698ee8230600260009054906101000a900473ffffffffffffffffffffffffffffffffffffffff16600660049054906101000a900462ffffff166040518463ffffffff1660e01b815260040161040693929190611930565b602060405180830381865afa158015610423573d6000803e3d6000fd5b505050506040513d601f19601f82011682018060405250810190610447919061197c565b905090565b600061045661085b565b905090565b6000610465610648565b905090565b6104726105ca565b61047c6000610959565b565b60008060009054906101000a900473ffffffffffffffffffffffffffffffffffffffff16905090565b6104af6105ca565b80600660076101000a81548161ffff021916908361ffff16021790555050565b6104d76105ca565b6104e081610a1d565b50565b6104eb6105ca565b6104f481610a61565b50565b6104ff6105ca565b61050881610a83565b50565b6105136105ca565b600073ffffffffffffffffffffffffffffffffffffffff168173ffffffffffffffffffffffffffffffffffffffff1603610582576040517f08c379a000000000000000000000000000000000000000000000000000000000815260040161057990611a2c565b60405180910390fd5b61058b81610959565b50565b6105966105ca565b61059f81610af5565b50565b6105aa6105ca565b6105b381610b39565b50565b6105be6105ca565b6105c781610b5d565b50565b6105d2610ba1565b73ffffffffffffffffffffffffffffffffffffffff166105f061047e565b73ffffffffffffffffffffffffffffffffffffffff1614610646576040517f08c379a000000000000000000000000000000000000000000000000000000000815260040161063d90611a98565b60405180910390fd5b565b600061271061065561085b565b61065f9190611ae7565b905090565b60008060008373ffffffffffffffffffffffffffffffffffffffff16633850c7bd6040518163ffffffff1660e01b815260040160e060405180830381865afa1580156106b4573d6000803e3d6000fd5b505050506040513d601f19601f820116820180604052508101906106d89190611be0565b50505093509350505060008161ffff1611610728576040517f08c379a000000000000000000000000000000000000000000000000000000000815260040161071f90611cce565b60405180910390fd5b6000808573ffffffffffffffffffffffffffffffffffffffff1663252c09d7846001876107559190611cee565b61075f9190611d24565b6040518263ffffffff1660e01b815260040161077b9190611d90565b608060405180830381865afa158015610798573d6000803e3d6000fd5b505050506040513d601f19601f820116820180604052508101906107bc9190611df9565b9350505091508061084d578573ffffffffffffffffffffffffffffffffffffffff1663252c09d760006040518263ffffffff1660e01b81526004016108019190611e9b565b608060405180830381865afa15801561081e573d6000803e3d6000fd5b505050506040513d601f19601f820116820180604052508101906108429190611df9565b909150905050809250505b814203945050505050919050565b600080610866610372565b905061087181610ba9565b6108b0576040517f08c379a00000000000000000000000000000000000000000000000000000000081526004016108a790611f28565b60405180910390fd5b60006108bb82610360565b90506000600660009054906101000a900463ffffffff1663ffffffff168263ffffffff1610156108f9576108ef8383610bcc565b508091505061091b565b61091583600660009054906101000a900463ffffffff16610bcc565b50809150505b61095181670de0b6b3a764000030600260009054906101000a900473ffffffffffffffffffffffffffffffffffffffff16610ea2565b935050505090565b60008060009054906101000a900473ffffffffffffffffffffffffffffffffffffffff169050816000806101000a81548173ffffffffffffffffffffffffffffffffffffffff021916908373ffffffffffffffffffffffffffffffffffffffff1602179055508173ffffffffffffffffffffffffffffffffffffffff168173ffffffffffffffffffffffffffffffffffffffff167f8be0079c531659141344cd1fd0a4f28419497f9722a3daafe3b4186f6b6457e060405160405180910390a35050565b80600260006101000a81548173ffffffffffffffffffffffffffffffffffffffff021916908373ffffffffffffffffffffffffffffffffffffffff16021790555050565b80600660046101000a81548162ffffff021916908362ffffff16021790555050565b6000610a8d610372565b9050610a9881610ba9565b610ad7576040517f08c379a0000000000000000000000000000000000000000000000000000000008152600401610ace90611f94565b60405180910390fd5b81600660096101000a81548160ff0219169083151502179055505050565b80600360006101000a81548173ffffffffffffffffffffffffffffffffffffffff021916908373ffffffffffffffffffffffffffffffffffffffff16021790555050565b80600660006101000a81548163ffffffff021916908363ffffffff16021790555050565b80600460006101000a81548173ffffffffffffffffffffffffffffffffffffffff021916908373ffffffffffffffffffffffffffffffffffffffff16021790555050565b600033905090565b6000808273ffffffffffffffffffffffffffffffffffffffff163b119050919050565b60008060008363ffffffff1603610c18576040517f08c379a0000000000000000000000000000000000000000000000000000000008152600401610c0f90612000565b60405180910390fd5b6000600267ffffffffffffffff811115610c3557610c34612020565b5b604051908082528060200260200182016040528015610c635781602001602082028036833780820191505090505b5090508381600081518110610c7b57610c7a61204f565b5b602002602001019063ffffffff16908163ffffffff1681525050600081600181518110610cab57610caa61204f565b5b602002602001019063ffffffff16908163ffffffff16815250506000808673ffffffffffffffffffffffffffffffffffffffff1663883bdbfd846040518263ffffffff1660e01b8152600401610d01919061213c565b600060405180830381865afa158015610d1e573d6000803e3d6000fd5b505050506040513d6000823e3d601f19601f82011682018060405250810190610d47919061234b565b91509150600082600081518110610d6157610d6061204f565b5b602002602001015183600181518110610d7d57610d7c61204f565b5b6020026020010151610d8f91906123c3565b9050600082600081518110610da757610da661204f565b5b602002602001015183600181518110610dc357610dc261204f565b5b6020026020010151610dd59190612422565b90508763ffffffff1682610de9919061246a565b965060008260060b128015610e13575060008863ffffffff1683610e0d91906124d4565b60060b14155b15610e27578680610e2390612505565b9750505b600073ffffffffffffffffffffffffffffffffffffffff80168963ffffffff16610e519190612571565b905060208273ffffffffffffffffffffffffffffffffffffffff1677ffffffffffffffffffffffffffffffffffffffffffffffff16901b81610e9391906125b3565b96505050505050509250929050565b600080610eae866110ae565b90506fffffffffffffffffffffffffffffffff80168173ffffffffffffffffffffffffffffffffffffffff1611610fc85760008173ffffffffffffffffffffffffffffffffffffffff168273ffffffffffffffffffffffffffffffffffffffff16610f1991906118df565b90508373ffffffffffffffffffffffffffffffffffffffff168573ffffffffffffffffffffffffffffffffffffffff1610610f8957610f847801000000000000000000000000000000000000000000000000876fffffffffffffffffffffffffffffffff16836114ba565b610fc0565b610fbf81876fffffffffffffffffffffffffffffffff1678010000000000000000000000000000000000000000000000006114ba565b5b9250506110a5565b600061100a8273ffffffffffffffffffffffffffffffffffffffff168373ffffffffffffffffffffffffffffffffffffffff16680100000000000000006114ba565b90508373ffffffffffffffffffffffffffffffffffffffff168573ffffffffffffffffffffffffffffffffffffffff16106110725761106d700100000000000000000000000000000000876fffffffffffffffffffffffffffffffff16836114ba565b6110a1565b6110a081876fffffffffffffffffffffffffffffffff167001000000000000000000000000000000006114ba565b5b9250505b50949350505050565b60008060008360020b126110c5578260020b6110cd565b8260020b6000035b90507ffffffffffffffffffffffffffffffffffffffffffffffffffffffffffff2761860000360020b81111561112f576040517f2bc80f3a00000000000000000000000000000000000000000000000000000000815260040160405180910390fd5b600080600183160361115257700100000000000000000000000000000000611164565b6ffffcb933bd6fad37aa2d162d1a5940015b70ffffffffffffffffffffffffffffffffff1690506000600283161461119e5760806ffff97272373d413259a46990580e213a8202901c90505b600060048316146111c35760806ffff2e50f5f656932ef12357cf3c7fdcc8202901c90505b600060088316146111e85760806fffe5caca7e10e4e61c3624eaa0941cd08202901c90505b6000601083161461120d5760806fffcb9843d60f6159c9db58835c9266448202901c90505b600060208316146112325760806fff973b41fa98c081472e6896dfb254c08202901c90505b600060408316146112575760806fff2ea16466c96a3843ec78b326b528618202901c90505b6000608083161461127c5760806ffe5dee046a99a2a811c461f1969c30538202901c90505b60006101008316146112a25760806ffcbe86c7900a88aedcffc83b479aa3a48202901c90505b60006102008316146112c85760806ff987a7253ac413176f2b074cf7815e548202901c90505b60006104008316146112ee5760806ff3392b0822b70005940c7a398e4b70f38202901c90505b60006108008316146113145760806fe7159475a2c29b7443b29c7fa6e889d98202901c90505b600061100083161461133a5760806fd097f3bdfd2022b8845ad8f792aa58258202901c90505b60006120008316146113605760806fa9f746462d870fdf8a65dc1f90e061e58202901c90505b60006140008316146113865760806f70d869a156d2a1b890bb3df62baf32f78202901c90505b60006180008316146113ac5760806f31be135f97d08fd981231505542fcfa68202901c90505b6000620100008316146113d35760806f09aa508b5b7a84e1c677de54f3e99bc98202901c90505b6000620200008316146113f95760806e5d6af8dedb81196699c329225ee6048202901c90505b60006204000083161461141e5760806d2216e584f5fa1ea926041bedfe988202901c90505b6000620800008316146114415760806b048a170391f7dc42444e8fa28202901c90505b60008460020b131561148157807fffffffffffffffffffffffffffffffffffffffffffffffffffffffffffffffff8161147d5761147c611ab8565b5b0490505b6000640100000000828161149857611497611ab8565b5b06146114a55760016114a8565b60005b60ff16602082901c0192505050919050565b60008060008019858709858702925082811083820303915050600081036114f457600084116114e857600080fd5b8382049250505061158c565b80841161150057600080fd5b600084868809905082811182039150808303925060008586600003169050808604955080840493506001818260000304019050808302841793506000600287600302189050808702600203810290508087026002038102905080870260020381029050808702600203810290508087026002038102905080870260020381029050808502955050505050505b9392505050565b6000604051905090565b600080fd5b600080fd5b6000819050919050565b6115ba816115a7565b81146115c557600080fd5b50565b6000813590506115d7816115b1565b92915050565b6000602082840312156115f3576115f261159d565b5b6000611601848285016115c8565b91505092915050565b611613816115a7565b82525050565b600060208201905061162e600083018461160a565b92915050565b600073ffffffffffffffffffffffffffffffffffffffff82169050919050565b600061165f82611634565b9050919050565b61166f81611654565b811461167a57600080fd5b50565b60008135905061168c81611666565b92915050565b6000602082840312156116a8576116a761159d565b5b60006116b68482850161167d565b91505092915050565b600063ffffffff82169050919050565b6116d8816116bf565b82525050565b60006020820190506116f360008301846116cf565b92915050565b61170281611654565b82525050565b600060208201905061171d60008301846116f9565b92915050565b600061ffff82169050919050565b61173a81611723565b811461174557600080fd5b50565b60008135905061175781611731565b92915050565b6000602082840312156117735761177261159d565b5b600061178184828501611748565b91505092915050565b600062ffffff82169050919050565b6117a28161178a565b81146117ad57600080fd5b50565b6000813590506117bf81611799565b92915050565b6000602082840312156117db576117da61159d565b5b60006117e9848285016117b0565b91505092915050565b60008115159050919050565b611807816117f2565b811461181257600080fd5b50565b600081359050611824816117fe565b92915050565b6000602082840312156118405761183f61159d565b5b600061184e84828501611815565b91505092915050565b611860816116bf565b811461186b57600080fd5b50565b60008135905061187d81611857565b92915050565b6000602082840312156118995761189861159d565b5b60006118a78482850161186e565b91505092915050565b7f4e487b7100000000000000000000000000000000000000000000000000000000600052601160045260246000fd5b60006118ea826115a7565b91506118f5836115a7565b9250828202611903816115a7565b9150828204841483151761191a576119196118b0565b5b5092915050565b61192a8161178a565b82525050565b600060608201905061194560008301866116f9565b61195260208301856116f9565b61195f6040830184611921565b949350505050565b60008151905061197681611666565b92915050565b6000602082840312156119925761199161159d565b5b60006119a084828501611967565b91505092915050565b600082825260208201905092915050565b7f4f776e61626c653a206e6577206f776e657220697320746865207a65726f206160008201527f6464726573730000000000000000000000000000000000000000000000000000602082015250565b6000611a166026836119a9565b9150611a21826119ba565b604082019050919050565b60006020820190508181036000830152611a4581611a09565b9050919050565b7f4f776e61626c653a2063616c6c6572206973206e6f7420746865206f776e6572600082015250565b6000611a826020836119a9565b9150611a8d82611a4c565b602082019050919050565b60006020820190508181036000830152611ab181611a75565b9050919050565b7f4e487b7100000000000000000000000000000000000000000000000000000000600052601260045260246000fd5b6000611af2826115a7565b9150611afd836115a7565b925082611b0d57611b0c611ab8565b5b828204905092915050565b611b2181611634565b8114611b2c57600080fd5b50565b600081519050611b3e81611b18565b92915050565b60008160020b9050919050565b611b5a81611b44565b8114611b6557600080fd5b50565b600081519050611b7781611b51565b92915050565b600081519050611b8c81611731565b92915050565b600060ff82169050919050565b611ba881611b92565b8114611bb357600080fd5b50565b600081519050611bc581611b9f565b92915050565b600081519050611bda816117fe565b92915050565b600080600080600080600060e0888a031215611bff57611bfe61159d565b5b6000611c0d8a828b01611b2f565b9750506020611c1e8a828b01611b68565b9650506040611c2f8a828b01611b7d565b9550506060611c408a828b01611b7d565b9450506080611c518a828b01611b7d565b93505060a0611c628a828b01611bb6565b92505060c0611c738a828b01611bcb565b91505092959891949750929550565b7f4e49000000000000000000000000000000000000000000000000000000000000600082015250565b6000611cb86002836119a9565b9150611cc382611c82565b602082019050919050565b60006020820190508181036000830152611ce781611cab565b9050919050565b6000611cf982611723565b9150611d0483611723565b9250828201905061ffff811115611d1e57611d1d6118b0565b5b92915050565b6000611d2f82611723565b9150611d3a83611723565b925082611d4a57611d49611ab8565b5b828206905092915050565b6000819050919050565b6000611d7a611d75611d7084611723565b611d55565b6115a7565b9050919050565b611d8a81611d5f565b82525050565b6000602082019050611da56000830184611d81565b92915050565b600081519050611dba81611857565b92915050565b60008160060b9050919050565b611dd681611dc0565b8114611de157600080fd5b50565b600081519050611df381611dcd565b92915050565b60008060008060808587031215611e1357611e1261159d565b5b6000611e2187828801611dab565b9450506020611e3287828801611de4565b9350506040611e4387828801611b2f565b9250506060611e5487828801611bcb565b91505092959194509250565b6000819050919050565b6000611e85611e80611e7b84611e60565b611d55565b6115a7565b9050919050565b611e9581611e6a565b82525050565b6000602082019050611eb06000830184611e8c565b92915050565b7f466565734f7261636c65496e666f4f7261636c653a204e6f74206120636f6e7460008201527f7261637400000000000000000000000000000000000000000000000000000000602082015250565b6000611f126024836119a9565b9150611f1d82611eb6565b604082019050919050565b60006020820190508181036000830152611f4181611f05565b9050919050565b7f466565734f7261636c65496e666f3a20496e76616c696420706f6f6c00000000600082015250565b6000611f7e601c836119a9565b9150611f8982611f48565b602082019050919050565b60006020820190508181036000830152611fad81611f71565b9050919050565b7f4250000000000000000000000000000000000000000000000000000000000000600082015250565b6000611fea6002836119a9565b9150611ff582611fb4565b602082019050919050565b6000602082019050818103600083015261201981611fdd565b9050919050565b7f4e487b7100000000000000000000000000000000000000000000000000000000600052604160045260246000fd5b7f4e487b7100000000000000000000000000000000000000000000000000000000600052603260045260246000fd5b600081519050919050565b600082825260208201905092915050565b6000819050602082019050919050565b6120b3816116bf565b82525050565b60006120c583836120aa565b60208301905092915050565b6000602082019050919050565b60006120e98261207e565b6120f38185612089565b93506120fe8361209a565b8060005b8381101561212f57815161211688826120b9565b9750612121836120d1565b925050600181019050612102565b5085935050505092915050565b6000602082019050818103600083015261215681846120de565b905092915050565b600080fd5b6000601f19601f8301169050919050565b61217d82612163565b810181811067ffffffffffffffff8211171561219c5761219b612020565b5b80604052505050565b60006121af611593565b90506121bb8282612174565b919050565b600067ffffffffffffffff8211156121db576121da612020565b5b602082029050602081019050919050565b600080fd5b60006122046121ff846121c0565b6121a5565b90508083825260208201905060208402830185811115612227576122266121ec565b5b835b81811015612250578061223c8882611de4565b845260208401935050602081019050612229565b5050509392505050565b600082601f83011261226f5761226e61215e565b5b815161227f8482602086016121f1565b91505092915050565b600067ffffffffffffffff8211156122a3576122a2612020565b5b602082029050602081019050919050565b60006122c76122c284612288565b6121a5565b905080838252602082019050602084028301858111156122ea576122e96121ec565b5b835b8181101561231357806122ff8882611b2f565b8452602084019350506020810190506122ec565b5050509392505050565b600082601f8301126123325761233161215e565b5b81516123428482602086016122b4565b91505092915050565b600080604083850312156123625761236161159d565b5b600083015167ffffffffffffffff8111156123805761237f6115a2565b5b61238c8582860161225a565b925050602083015167ffffffffffffffff8111156123ad576123ac6115a2565b5b6123b98582860161231d565b9150509250929050565b60006123ce82611dc0565b91506123d983611dc0565b92508282039050667fffffffffffff81137fffffffffffffffffffffffffffffffffffffffffffffffffff800000000000008212171561241c5761241b6118b0565b5b92915050565b600061242d82611634565b915061243883611634565b9250828203905073ffffffffffffffffffffffffffffffffffffffff811115612464576124636118b0565b5b92915050565b600061247582611dc0565b915061248083611dc0565b9250826124905761248f611ab8565b5b600160000383147fffffffffffffffffffffffffffffffffffffffffffffffffff80000000000000831416156124c9576124c86118b0565b5b828205905092915050565b60006124df82611dc0565b91506124ea83611dc0565b9250826124fa576124f9611ab8565b5b828207905092915050565b600061251082611b44565b91507fffffffffffffffffffffffffffffffffffffffffffffffffffffffffff8000008203612542576125416118b0565b5b600182039050919050565b600077ffffffffffffffffffffffffffffffffffffffffffffffff82169050919050565b600061257c8261254d565b91506125878361254d565b92508282026125958161254d565b915082820484148315176125ac576125ab6118b0565b5b5092915050565b60006125be8261254d565b91506125c98361254d565b9250826125d9576125d8611ab8565b5b82820490509291505056fea26469706673582212201b1cf42e03abaf97776bd7a3b16b81f87388bb6707c3baecc32ba4138e03990b64736f6c63430008190033",
  "linkReferences": {},
  "deployedLinkReferences": {}
}